{
  "contractName": "Em_trans",
  "abi": [
    {
      "inputs": [],
      "stateMutability": "nonpayable",
      "type": "constructor"
    },
    {
      "inputs": [
        {
          "internalType": "uint256",
          "name": "",
          "type": "uint256"
        }
      ],
      "name": "emp",
      "outputs": [
        {
          "internalType": "address payable",
          "name": "",
          "type": "address"
        }
      ],
      "stateMutability": "view",
      "type": "function",
      "constant": true
    },
    {
      "inputs": [],
      "name": "manager",
      "outputs": [
        {
          "internalType": "address payable",
          "name": "",
          "type": "address"
        }
      ],
      "stateMutability": "view",
      "type": "function",
      "constant": true
    },
    {
      "stateMutability": "payable",
      "type": "receive",
      "payable": true
    },
    {
      "inputs": [
        {
          "internalType": "address",
          "name": "_emaddress",
          "type": "address"
        }
      ],
      "name": "registerEmployee",
      "outputs": [],
      "stateMutability": "nonpayable",
      "type": "function"
    },
    {
      "inputs": [],
      "name": "transferSalary",
      "outputs": [],
      "stateMutability": "payable",
      "type": "function",
      "payable": true
    },
    {
      "inputs": [],
      "name": "getEmployee",
      "outputs": [
        {
          "internalType": "address payable[]",
          "name": "",
          "type": "address[]"
        }
      ],
      "stateMutability": "view",
      "type": "function",
      "constant": true
    }
  ],
  "bytecode": "0x608060405234801561001057600080fd5b5033600160006101000a81548173ffffffffffffffffffffffffffffffffffffffff021916908373ffffffffffffffffffffffffffffffffffffffff1602179055506107da806100616000396000f3fe60806040526004361061004e5760003560e01c80634132db8f1461005a578063481c6a751461008557806354e420af146100b05780635786a552146100ba578063dbe7e257146100e357610055565b3661005557005b600080fd5b34801561006657600080fd5b5061006f610120565b60405161007c9190610561565b60405180910390f35b34801561009157600080fd5b5061009a6101ae565b6040516100a79190610592565b60405180910390f35b6100b86101d4565b005b3480156100c657600080fd5b506100e160048036038101906100dc91906105f0565b610317565b005b3480156100ef57600080fd5b5061010a60048036038101906101059190610653565b610432565b6040516101179190610592565b60405180910390f35b606060008054806020026020016040519081016040528092919081815260200182805480156101a457602002820191906000526020600020905b8160009054906101000a900473ffffffffffffffffffffffffffffffffffffffff1673ffffffffffffffffffffffffffffffffffffffff168152602001906001019080831161015a575b5050505050905090565b600160009054906101000a900473ffffffffffffffffffffffffffffffffffffffff1681565b600160009054906101000a900473ffffffffffffffffffffffffffffffffffffffff1673ffffffffffffffffffffffffffffffffffffffff163373ffffffffffffffffffffffffffffffffffffffff1614610264576040517f08c379a000000000000000000000000000000000000000000000000000000000815260040161025b906106dd565b60405180910390fd5b60005b6000805490508110156103145760008181548110610288576102876106fd565b5b9060005260206000200160009054906101000a900473ffffffffffffffffffffffffffffffffffffffff1673ffffffffffffffffffffffffffffffffffffffff166108fc671bc16d674ec800009081150290604051600060405180830381858888f19350505050158015610300573d6000803e3d6000fd5b50808061030c9061075b565b915050610267565b50565b60006001905060005b6000805490508110156103b7578273ffffffffffffffffffffffffffffffffffffffff1660008281548110610358576103576106fd565b5b9060005260206000200160009054906101000a900473ffffffffffffffffffffffffffffffffffffffff1673ffffffffffffffffffffffffffffffffffffffff1614156103a457600091505b80806103af9061075b565b915050610320565b506001811415610429576000829080600181540180825580915050600190039060005260206000200160009091909190916101000a81548173ffffffffffffffffffffffffffffffffffffffff021916908373ffffffffffffffffffffffffffffffffffffffff16021790555061042e565b600080fd5b5050565b6000818154811061044257600080fd5b906000526020600020016000915054906101000a900473ffffffffffffffffffffffffffffffffffffffff1681565b600081519050919050565b600082825260208201905092915050565b6000819050602082019050919050565b600073ffffffffffffffffffffffffffffffffffffffff82169050919050565b60006104c88261049d565b9050919050565b6104d8816104bd565b82525050565b60006104ea83836104cf565b60208301905092915050565b6000602082019050919050565b600061050e82610471565b610518818561047c565b93506105238361048d565b8060005b8381101561055457815161053b88826104de565b9750610546836104f6565b925050600181019050610527565b5085935050505092915050565b6000602082019050818103600083015261057b8184610503565b905092915050565b61058c816104bd565b82525050565b60006020820190506105a76000830184610583565b92915050565b600080fd5b60006105bd8261049d565b9050919050565b6105cd816105b2565b81146105d857600080fd5b50565b6000813590506105ea816105c4565b92915050565b600060208284031215610606576106056105ad565b5b6000610614848285016105db565b91505092915050565b6000819050919050565b6106308161061d565b811461063b57600080fd5b50565b60008135905061064d81610627565b92915050565b600060208284031215610669576106686105ad565b5b60006106778482850161063e565b91505092915050565b600082825260208201905092915050565b7f596f7520617265206e6f7420746865206d616e61676572000000000000000000600082015250565b60006106c7601783610680565b91506106d282610691565b602082019050919050565b600060208201905081810360008301526106f6816106ba565b9050919050565b7f4e487b7100000000000000000000000000000000000000000000000000000000600052603260045260246000fd5b7f4e487b7100000000000000000000000000000000000000000000000000000000600052601160045260246000fd5b60006107668261061d565b91507fffffffffffffffffffffffffffffffffffffffffffffffffffffffffffffffff8214156107995761079861072c565b5b60018201905091905056fea2646970667358221220492992f230976b25844231bec38a66e3a9460d6914a2e7ac2f26c8d051290bb664736f6c634300080b0033",
  "immutableReferences": {},
  "source": "// SPDX-License-Identifier: MIT\r\npragma solidity >= 0.5.22 <0.9.0;\r\n \r\ncontract Em_trans{\r\n\r\naddress payable[] public emp;\r\naddress payable public manager;\r\n\r\nconstructor(){\r\n    manager=payable(msg.sender);\r\n}\r\nreceive() external payable{}\r\n\r\nfunction registerEmployee(address _emaddress) public {\r\n    uint flag=1;\r\n   for(uint256 j=0;j<emp.length;j++)\r\n    if(emp[j]==_emaddress){\r\n        flag=0;\r\n    }\r\n    if(flag==1)\r\n    emp.push(payable(_emaddress));\r\n    else\r\n    revert();\r\n}\r\n\r\nfunction transferSalary() public payable{\r\n    require(msg.sender==manager,\"You are not the manager\");\r\n    // require(msg.value>0 ether ,\"The required amount is not met\");\r\n    for(uint i=0; i<emp.length;i++){\r\n       \r\n        emp[i].transfer(2 ether);\r\n        \r\n    }\r\n}\r\n\r\nfunction getEmployee() public view returns(address payable[] memory){\r\n    return emp;\r\n}\r\n}\r\n\r\n//1st Test\r\n\r\n//contract address:    0x42aF1bC5F4DB237d0E3a268d03e00F9668EC968B\r\n//account:             0x363f7dd011FC3dA9654C5BfAD2B83878B242C74B\r\n\r\n//2nd Test \r\n\r\n//contract address:    0x16399199fA9bBBe4f67557eE2213209BdC6424bD\r\n//account:             0xE7E6F306F425E8c67a07AFC30C259bfd58482Aa1\r\n\r\n//3rd Test \r\n\r\n//contract address:    0xEF79eC44DCc7e75047b1B891Dab87008B6Cc0001\r\n//account:             0xE7E6F306F425E8c67a07AFC30C259bfd58482Aa1\r\n\r\n//4th Test \r\n//contract address:    0x27B4c1cE18B40eE11F6427E1788DD6f32C2C0efd\r\n//account:             0xE7E6F306F425E8c67a07AFC30C259bfd58482Aa1\r\n\r\n//5th Test\r\n//contract address:    0x335A2A6D8858BC6e0c44BfDE45A773a595406A49\r\n\r\n//6th Test \r\n//contract address:    0x0Fc351c5Cd93baC4B280c48fBC0B181C996Cd289\r\n\r\n//7th Test\r\n//contract address:    0x0883AEAd5CE3Fec31f68A9874dda5A94579AD912\r\n\r\n//8th Test \r\n//contract address:    0xC8B41240D0F278166a9E68e1b8c5CD456688a896",
  "sourcePath": "C:\\Users\\Lenovo\\OneDrive\\Desktop\\New folder (2)\\web3lab-lottery\\contracts\\Em_trans.sol",
  "compiler": {
    "name": "solc",
    "version": "0.8.11+commit.d7f03943.Emscripten.clang"
  },
  "schemaVersion": "3.4.10",
  "updatedAt": "2022-12-10T09:38:49.469Z",
  "networkType": "ethereum",
  "devdoc": {
    "kind": "dev",
    "methods": {},
    "version": 1
  },
  "userdoc": {
    "kind": "user",
    "methods": {},
    "version": 1
  }
}