{
  "contractName": "invoice",
  "abi": [
    {
      "inputs": [],
      "stateMutability": "nonpayable",
      "type": "constructor"
    },
    {
      "inputs": [],
      "name": "manager",
      "outputs": [
        {
          "internalType": "address",
          "name": "",
          "type": "address"
        }
      ],
      "stateMutability": "view",
      "type": "function",
      "constant": true
    },
    {
      "inputs": [
        {
          "internalType": "uint256",
          "name": "",
          "type": "uint256"
        }
      ],
      "name": "requests",
      "outputs": [
        {
          "internalType": "address",
          "name": "buyer",
          "type": "address"
        },
        {
          "internalType": "address payable",
          "name": "seller",
          "type": "address"
        },
        {
          "internalType": "string",
          "name": "buyerPan",
          "type": "string"
        },
        {
          "internalType": "string",
          "name": "sellerPan",
          "type": "string"
        },
        {
          "internalType": "string",
          "name": "data",
          "type": "string"
        },
        {
          "internalType": "uint256",
          "name": "amount",
          "type": "uint256"
        },
        {
          "internalType": "uint256",
          "name": "id",
          "type": "uint256"
        }
      ],
      "stateMutability": "view",
      "type": "function",
      "constant": true
    },
    {
      "inputs": [],
      "name": "tran_request",
      "outputs": [
        {
          "internalType": "uint256",
          "name": "",
          "type": "uint256"
        }
      ],
      "stateMutability": "view",
      "type": "function",
      "constant": true
    },
    {
      "stateMutability": "payable",
      "type": "receive",
      "payable": true
    },
    {
      "inputs": [
        {
          "internalType": "uint256",
          "name": "_id",
          "type": "uint256"
        },
        {
          "internalType": "string",
          "name": "_buyerPan",
          "type": "string"
        },
        {
          "internalType": "string",
          "name": "_sellerPan",
          "type": "string"
        },
        {
          "internalType": "address payable",
          "name": "_seller",
          "type": "address"
        },
        {
          "internalType": "uint256",
          "name": "_amount",
          "type": "uint256"
        },
        {
          "internalType": "string",
          "name": "_data",
          "type": "string"
        }
      ],
      "name": "Tranct",
      "outputs": [],
      "stateMutability": "payable",
      "type": "function",
      "payable": true
    },
    {
      "inputs": [
        {
          "internalType": "uint256",
          "name": "_id",
          "type": "uint256"
        }
      ],
      "name": "getrequest",
      "outputs": [
        {
          "components": [
            {
              "internalType": "address",
              "name": "buyer",
              "type": "address"
            },
            {
              "internalType": "address payable",
              "name": "seller",
              "type": "address"
            },
            {
              "internalType": "string",
              "name": "buyerPan",
              "type": "string"
            },
            {
              "internalType": "string",
              "name": "sellerPan",
              "type": "string"
            },
            {
              "internalType": "string",
              "name": "data",
              "type": "string"
            },
            {
              "internalType": "uint256",
              "name": "amount",
              "type": "uint256"
            },
            {
              "internalType": "uint256",
              "name": "id",
              "type": "uint256"
            }
          ],
          "internalType": "struct invoice.Invoice",
          "name": "",
          "type": "tuple"
        }
      ],
      "stateMutability": "view",
      "type": "function",
      "constant": true
    }
  ],
  "bytecode": "0x608060405234801561001057600080fd5b50336000806101000a81548173ffffffffffffffffffffffffffffffffffffffff021916908373ffffffffffffffffffffffffffffffffffffffff160217905550611279806100606000396000f3fe60806040526004361061004e5760003560e01c8063481c6a751461005a5780637a26db0c1461008557806381d12c58146100b0578063bb5c20c6146100f3578063e3f508041461010f57610055565b3661005557005b600080fd5b34801561006657600080fd5b5061006f61014c565b60405161007c9190610b59565b60405180910390f35b34801561009157600080fd5b5061009a610170565b6040516100a79190610b8d565b60405180910390f35b3480156100bc57600080fd5b506100d760048036038101906100d29190610be8565b610176565b6040516100ea9796959493929190610ccf565b60405180910390f35b61010d60048036038101906101089190610eb4565b610390565b005b34801561011b57600080fd5b5061013660048036038101906101319190610be8565b6106dc565b60405161014391906110b6565b60405180910390f35b60008054906101000a900473ffffffffffffffffffffffffffffffffffffffff1681565b60025481565b60016020528060005260406000206000915090508060000160009054906101000a900473ffffffffffffffffffffffffffffffffffffffff16908060010160009054906101000a900473ffffffffffffffffffffffffffffffffffffffff16908060020180546101e590611107565b80601f016020809104026020016040519081016040528092919081815260200182805461021190611107565b801561025e5780601f106102335761010080835404028352916020019161025e565b820191906000526020600020905b81548152906001019060200180831161024157829003601f168201915b50505050509080600301805461027390611107565b80601f016020809104026020016040519081016040528092919081815260200182805461029f90611107565b80156102ec5780601f106102c1576101008083540402835291602001916102ec565b820191906000526020600020905b8154815290600101906020018083116102cf57829003601f168201915b50505050509080600401805461030190611107565b80601f016020809104026020016040519081016040528092919081815260200182805461032d90611107565b801561037a5780601f1061034f5761010080835404028352916020019161037a565b820191906000526020600020905b81548152906001019060200180831161035d57829003601f168201915b5050505050908060050154908060060154905087565b60008054906101000a900473ffffffffffffffffffffffffffffffffffffffff1673ffffffffffffffffffffffffffffffffffffffff163373ffffffffffffffffffffffffffffffffffffffff16141561041f576040517f08c379a0000000000000000000000000000000000000000000000000000000008152600401610416906111ab565b60405180910390fd5b600060016000600254815260200190815260200160002090506002600081548092919061044b906111fa565b91905055508581600201908051906020019061046892919061097f565b508481600301908051906020019061048192919061097f565b508181600401908051906020019061049a92919061097f565b50828160050181905550338160000160006101000a81548173ffffffffffffffffffffffffffffffffffffffff021916908373ffffffffffffffffffffffffffffffffffffffff160217905550838160010160006101000a81548173ffffffffffffffffffffffffffffffffffffffff021916908373ffffffffffffffffffffffffffffffffffffffff16021790555086816006018190555080600160008981526020019081526020016000206000820160009054906101000a900473ffffffffffffffffffffffffffffffffffffffff168160000160006101000a81548173ffffffffffffffffffffffffffffffffffffffff021916908373ffffffffffffffffffffffffffffffffffffffff1602179055506001820160009054906101000a900473ffffffffffffffffffffffffffffffffffffffff168160010160006101000a81548173ffffffffffffffffffffffffffffffffffffffff021916908373ffffffffffffffffffffffffffffffffffffffff160217905550600282018160020190805461062990611107565b610634929190610a05565b50600382018160030190805461064990611107565b610654929190610a05565b50600482018160040190805461066990611107565b610674929190610a05565b5060058201548160050155600682015481600601559050508373ffffffffffffffffffffffffffffffffffffffff166108fc849081150290604051600060405180830381858888f193505050501580156106d2573d6000803e3d6000fd5b5050505050505050565b6106e4610a92565b600160008381526020019081526020016000206040518060e00160405290816000820160009054906101000a900473ffffffffffffffffffffffffffffffffffffffff1673ffffffffffffffffffffffffffffffffffffffff1673ffffffffffffffffffffffffffffffffffffffff1681526020016001820160009054906101000a900473ffffffffffffffffffffffffffffffffffffffff1673ffffffffffffffffffffffffffffffffffffffff1673ffffffffffffffffffffffffffffffffffffffff1681526020016002820180546107be90611107565b80601f01602080910402602001604051908101604052809291908181526020018280546107ea90611107565b80156108375780601f1061080c57610100808354040283529160200191610837565b820191906000526020600020905b81548152906001019060200180831161081a57829003601f168201915b5050505050815260200160038201805461085090611107565b80601f016020809104026020016040519081016040528092919081815260200182805461087c90611107565b80156108c95780601f1061089e576101008083540402835291602001916108c9565b820191906000526020600020905b8154815290600101906020018083116108ac57829003601f168201915b505050505081526020016004820180546108e290611107565b80601f016020809104026020016040519081016040528092919081815260200182805461090e90611107565b801561095b5780601f106109305761010080835404028352916020019161095b565b820191906000526020600020905b81548152906001019060200180831161093e57829003601f168201915b50505050508152602001600582015481526020016006820154815250509050919050565b82805461098b90611107565b90600052602060002090601f0160209004810192826109ad57600085556109f4565b82601f106109c657805160ff19168380011785556109f4565b828001600101855582156109f4579182015b828111156109f35782518255916020019190600101906109d8565b5b509050610a019190610afb565b5090565b828054610a1190611107565b90600052602060002090601f016020900481019282610a335760008555610a81565b82601f10610a445780548555610a81565b82800160010185558215610a8157600052602060002091601f016020900482015b82811115610a80578254825591600101919060010190610a65565b5b509050610a8e9190610afb565b5090565b6040518060e00160405280600073ffffffffffffffffffffffffffffffffffffffff168152602001600073ffffffffffffffffffffffffffffffffffffffff16815260200160608152602001606081526020016060815260200160008152602001600081525090565b5b80821115610b14576000816000905550600101610afc565b5090565b600073ffffffffffffffffffffffffffffffffffffffff82169050919050565b6000610b4382610b18565b9050919050565b610b5381610b38565b82525050565b6000602082019050610b6e6000830184610b4a565b92915050565b6000819050919050565b610b8781610b74565b82525050565b6000602082019050610ba26000830184610b7e565b92915050565b6000604051905090565b600080fd5b600080fd5b610bc581610b74565b8114610bd057600080fd5b50565b600081359050610be281610bbc565b92915050565b600060208284031215610bfe57610bfd610bb2565b5b6000610c0c84828501610bd3565b91505092915050565b6000610c2082610b18565b9050919050565b610c3081610c15565b82525050565b600081519050919050565b600082825260208201905092915050565b60005b83811015610c70578082015181840152602081019050610c55565b83811115610c7f576000848401525b50505050565b6000601f19601f8301169050919050565b6000610ca182610c36565b610cab8185610c41565b9350610cbb818560208601610c52565b610cc481610c85565b840191505092915050565b600060e082019050610ce4600083018a610b4a565b610cf16020830189610c27565b8181036040830152610d038188610c96565b90508181036060830152610d178187610c96565b90508181036080830152610d2b8186610c96565b9050610d3a60a0830185610b7e565b610d4760c0830184610b7e565b98975050505050505050565b600080fd5b600080fd5b7f4e487b7100000000000000000000000000000000000000000000000000000000600052604160045260246000fd5b610d9582610c85565b810181811067ffffffffffffffff82111715610db457610db3610d5d565b5b80604052505050565b6000610dc7610ba8565b9050610dd38282610d8c565b919050565b600067ffffffffffffffff821115610df357610df2610d5d565b5b610dfc82610c85565b9050602081019050919050565b82818337600083830152505050565b6000610e2b610e2684610dd8565b610dbd565b905082815260208101848484011115610e4757610e46610d58565b5b610e52848285610e09565b509392505050565b600082601f830112610e6f57610e6e610d53565b5b8135610e7f848260208601610e18565b91505092915050565b610e9181610c15565b8114610e9c57600080fd5b50565b600081359050610eae81610e88565b92915050565b60008060008060008060c08789031215610ed157610ed0610bb2565b5b6000610edf89828a01610bd3565b965050602087013567ffffffffffffffff811115610f0057610eff610bb7565b5b610f0c89828a01610e5a565b955050604087013567ffffffffffffffff811115610f2d57610f2c610bb7565b5b610f3989828a01610e5a565b9450506060610f4a89828a01610e9f565b9350506080610f5b89828a01610bd3565b92505060a087013567ffffffffffffffff811115610f7c57610f7b610bb7565b5b610f8889828a01610e5a565b9150509295509295509295565b610f9e81610b38565b82525050565b610fad81610c15565b82525050565b600082825260208201905092915050565b6000610fcf82610c36565b610fd98185610fb3565b9350610fe9818560208601610c52565b610ff281610c85565b840191505092915050565b61100681610b74565b82525050565b600060e0830160008301516110246000860182610f95565b5060208301516110376020860182610fa4565b506040830151848203604086015261104f8282610fc4565b915050606083015184820360608601526110698282610fc4565b915050608083015184820360808601526110838282610fc4565b91505060a083015161109860a0860182610ffd565b5060c08301516110ab60c0860182610ffd565b508091505092915050565b600060208201905081810360008301526110d0818461100c565b905092915050565b7f4e487b7100000000000000000000000000000000000000000000000000000000600052602260045260246000fd5b6000600282049050600182168061111f57607f821691505b60208210811415611133576111326110d8565b5b50919050565b7f4d616e616765722063616e277420696e697469617465207472616e736163746960008201527f6f6e000000000000000000000000000000000000000000000000000000000000602082015250565b6000611195602283610c41565b91506111a082611139565b604082019050919050565b600060208201905081810360008301526111c481611188565b9050919050565b7f4e487b7100000000000000000000000000000000000000000000000000000000600052601160045260246000fd5b600061120582610b74565b91507fffffffffffffffffffffffffffffffffffffffffffffffffffffffffffffffff821415611238576112376111cb565b5b60018201905091905056fea26469706673582212209f8da974fdfc94bdb7dc51f0ef955986659649d92586865dd83be3827a1e4a5364736f6c634300080b0033",
  "immutableReferences": {},
  "source": "// SPDX-License-Identifier: MIT\r\npragma solidity >= 0.5.22 <0.9.0;\r\n\r\ncontract invoice {\r\n\r\n    address public manager;\r\n    \r\n    struct Invoice{\r\n     \r\n     address buyer;\r\n     address payable seller;\r\n     string buyerPan;\r\n     string sellerPan;\r\n     string data;\r\n     uint amount;\r\n     uint id;\r\n    }\r\n    \r\n    constructor(){\r\n     manager = msg.sender;\r\n    }\r\n    \r\n    receive() external payable{\r\n        \r\n    }\r\n\r\n     mapping(uint=>Invoice) public requests;\r\n     uint public tran_request;\r\n\r\n    function Tranct(uint _id, string memory _buyerPan, string memory _sellerPan, address payable _seller, uint _amount, string memory _data)public payable {\r\n\r\n        require(msg.sender!=manager, \"Manager can't initiate transaction\");\r\n        Invoice storage newtransaction = requests[tran_request];\r\n        tran_request++;\r\n        newtransaction.buyerPan=_buyerPan;\r\n        newtransaction.sellerPan=_sellerPan;\r\n        newtransaction.data=_data;\r\n        newtransaction.amount=_amount;\r\n        newtransaction.buyer= msg.sender;\r\n        newtransaction.seller=_seller;\r\n        newtransaction.id=_id;\r\n        requests[_id]=newtransaction;\r\n        \r\n        _seller.transfer(_amount);\r\n        \r\n    }\r\n    function getrequest(uint _id) public view returns(Invoice memory){\r\n         \r\n         return requests[_id];\r\n\r\n    }\r\n\r\n}\r\n\r\n\r\n   // contract address:    0xABb500f36f1702e0A1301887eb493a8D34D9068A\r\n//account:             0x707B4463e7e16E5A0E2B948F35a88366C1d02560",
  "sourcePath": "C:\\Users\\Lenovo\\OneDrive\\Desktop\\New folder\\Transfer_Salary\\contracts\\invoice.sol",
  "compiler": {
    "name": "solc",
    "version": "0.8.11+commit.d7f03943.Emscripten.clang"
  },
  "schemaVersion": "3.4.11",
  "updatedAt": "2022-12-24T16:52:14.160Z",
  "networkType": "ethereum",
  "devdoc": {
    "kind": "dev",
    "methods": {},
    "version": 1
  },
  "userdoc": {
    "kind": "user",
    "methods": {},
    "version": 1
  }
}